{
  "contractName": "NFTTermsContract",
  "abi": [
    {
      "constant": false,
      "inputs": [
        {
          "name": "agreementId",
          "type": "bytes32"
        },
        {
          "name": "payer",
          "type": "address"
        },
        {
          "name": "beneficiary",
          "type": "address"
        },
        {
          "name": "tokenId",
          "type": "uint256"
        },
        {
          "name": "tokenAddress",
          "type": "address"
        }
      ],
      "name": "registerNFTRepayment",
      "outputs": [
        {
          "name": "_success",
          "type": "bool"
        }
      ],
      "payable": false,
      "stateMutability": "nonpayable",
      "type": "function"
    },
    {
      "constant": true,
      "inputs": [],
      "name": "SEVEN_DAYS_IN_BLOCKS",
      "outputs": [
        {
          "name": "",
          "type": "uint256"
        }
      ],
      "payable": false,
      "stateMutability": "view",
      "type": "function"
    },
    {
      "constant": true,
      "inputs": [],
      "name": "repaymentRouter",
      "outputs": [
        {
          "name": "",
          "type": "address"
        }
      ],
      "payable": false,
      "stateMutability": "view",
      "type": "function"
    },
    {
      "constant": true,
      "inputs": [],
      "name": "repaymentPrincipalNFT",
      "outputs": [
        {
          "name": "",
          "type": "address"
        }
      ],
      "payable": false,
      "stateMutability": "view",
      "type": "function"
    },
    {
      "constant": true,
      "inputs": [
        {
          "name": "agreementId",
          "type": "bytes32"
        },
        {
          "name": "blockNumber",
          "type": "uint256"
        }
      ],
      "name": "getExpectedRepaymentValue",
      "outputs": [
        {
          "name": "_expectedRepaymentValue",
          "type": "uint256"
        }
      ],
      "payable": false,
      "stateMutability": "view",
      "type": "function"
    },
    {
      "constant": true,
      "inputs": [
        {
          "name": "agreementId",
          "type": "bytes32"
        },
        {
          "name": "blockNumber",
          "type": "uint256"
        }
      ],
      "name": "getValueRepaid",
      "outputs": [
        {
          "name": "_valueRepaid",
          "type": "uint256"
        }
      ],
      "payable": false,
      "stateMutability": "view",
      "type": "function"
    },
    {
      "inputs": [
        {
          "name": "_debtRegistry",
          "type": "address"
        },
        {
          "name": "_repaymentPrincipalNFT",
          "type": "address"
        },
        {
          "name": "_repaymentRouter",
          "type": "address"
        }
      ],
      "payable": false,
      "stateMutability": "nonpayable",
      "type": "constructor"
    }
  ],
  "bytecode": "0x6060604052341561000f57600080fd5b60405160608061073c8339810160405280805190602001909190805190602001909190805190602001909190505082600260006101000a81548173ffffffffffffffffffffffffffffffffffffffff021916908373ffffffffffffffffffffffffffffffffffffffff16021790555081600360006101000a81548173ffffffffffffffffffffffffffffffffffffffff021916908373ffffffffffffffffffffffffffffffffffffffff16021790555080600460006101000a81548173ffffffffffffffffffffffffffffffffffffffff021916908373ffffffffffffffffffffffffffffffffffffffff16021790555050505061062a806101126000396000f300606060405260043610610078576000357c0100000000000000000000000000000000000000000000000000000000900463ffffffff16806323d567e71461007d5780633a3a83c3146101225780636fa9d0561461014b578063949b6e66146101a057806399114d84146101f5578063f03a423c14610239575b600080fd5b341561008857600080fd5b61010860048080356000191690602001909190803573ffffffffffffffffffffffffffffffffffffffff1690602001909190803573ffffffffffffffffffffffffffffffffffffffff1690602001909190803590602001909190803573ffffffffffffffffffffffffffffffffffffffff1690602001909190505061027d565b604051808215151515815260200191505060405180910390f35b341561012d57600080fd5b610135610388565b6040518082815260200191505060405180910390f35b341561015657600080fd5b61015e61038e565b604051808273ffffffffffffffffffffffffffffffffffffffff1673ffffffffffffffffffffffffffffffffffffffff16815260200191505060405180910390f35b34156101ab57600080fd5b6101b36103b4565b604051808273ffffffffffffffffffffffffffffffffffffffff1673ffffffffffffffffffffffffffffffffffffffff16815260200191505060405180910390f35b341561020057600080fd5b6102236004808035600019169060200190919080359060200190919050506103da565b6040518082815260200191505060405180910390f35b341561024457600080fd5b6102676004808035600019169060200190919080359060200190919050506104c7565b6040518082815260200191505060405180910390f35b6000600460009054906101000a900473ffffffffffffffffffffffffffffffffffffffff1673ffffffffffffffffffffffffffffffffffffffff163373ffffffffffffffffffffffffffffffffffffffff161415156102df576000905061037f565b600360009054906101000a900473ffffffffffffffffffffffffffffffffffffffff1673ffffffffffffffffffffffffffffffffffffffff168273ffffffffffffffffffffffffffffffffffffffff16141561037a5760018060008860001916600019168152602001908152602001600020600085815260200190815260200160002060006101000a81548160ff0219169083151502179055505b600190505b95945050505050565b61a53c81565b600460009054906101000a900473ffffffffffffffffffffffffffffffffffffffff1681565b600360009054906101000a900473ffffffffffffffffffffffffffffffffffffffff1681565b6000816104ad61a53c600260009054906101000a900473ffffffffffffffffffffffffffffffffffffffff1673ffffffffffffffffffffffffffffffffffffffff166370342785876000604051602001526040518263ffffffff167c0100000000000000000000000000000000000000000000000000000000028152600401808260001916600019168152602001915050602060405180830381600087803b151561048457600080fd5b6102c65a03f1151561049557600080fd5b505050604051805190506105e090919063ffffffff16565b10156104bc57600190506104c1565b600090505b92915050565b600080600260009054906101000a900473ffffffffffffffffffffffffffffffffffffffff1673ffffffffffffffffffffffffffffffffffffffff1663314a522e856000604051602001526040518263ffffffff167c0100000000000000000000000000000000000000000000000000000000028152600401808260001916600019168152602001915050602060405180830381600087803b151561056b57600080fd5b6102c65a03f1151561057c57600080fd5b50505060405180519050600190049050600160008560001916600019168152602001908152602001600020600082815260200190815260200160002060009054906101000a900460ff166105d15760006105d4565b60015b60ff1691505092915050565b60008082840190508381101515156105f457fe5b80915050929150505600a165627a7a7230582090612b1593efefc52675a75f6b43a5a60633004f6800eda429f8005bb871511f0029",
  "source": "/*\n\n  Copyright 2017 Dharma Labs Inc.\n\n  Licensed under the Apache License, Version 2.0 (the \"License\");\n  you may not use this file except in compliance with the License.\n  You may obtain a copy of the License at\n\n    http://www.apache.org/licenses/LICENSE-2.0\n\n  Unless required by applicable law or agreed to in writing, software\n  distributed under the License is distributed on an \"AS IS\" BASIS,\n  WITHOUT WARRANTIES OR CONDITIONS OF ANY KIND, either express or implied.\n  See the License for the specific language governing permissions and\n  limitations under the License.\n\n*/\n\npragma solidity 0.4.18;\n\nimport \"zeppelin-solidity/contracts/math/SafeMath.sol\";\nimport \"../DebtRegistry.sol\";\n\n\ncontract NFTTermsContract {\n    using SafeMath for uint;\n\n    uint public constant SEVEN_DAYS_IN_BLOCKS = 42300;\n\n    mapping (bytes32 => bool) debtRepaid;\n    mapping (bytes32 => mapping (uint => bool)) principalNFTsRepaid;\n\n    DebtRegistry debtRegistry;\n\n    address public repaymentPrincipalNFT;\n    address public repaymentRouter;\n\n    function NFTTermsContract(\n        address _debtRegistry,\n        address _repaymentPrincipalNFT,\n        address _repaymentRouter\n    )\n        public\n    {\n        debtRegistry = DebtRegistry(_debtRegistry);\n\n        repaymentPrincipalNFT = _repaymentPrincipalNFT;\n        repaymentRouter = _repaymentRouter;\n    }\n\n    function registerNFTRepayment(\n        bytes32 agreementId,\n        address payer,\n        address beneficiary,\n        uint256 tokenId,\n        address tokenAddress\n    )\n        public\n        returns (bool _success)\n    {\n        if (msg.sender != repaymentRouter) {\n            return false;\n        }\n\n        if (tokenAddress == repaymentPrincipalNFT) {\n            principalNFTsRepaid[agreementId][tokenId] = true;\n        }\n\n        return true;\n    }\n\n    function getExpectedRepaymentValue(\n        bytes32 agreementId,\n        uint256 blockNumber\n    )\n        public\n        view\n        returns (uint _expectedRepaymentValue)\n    {\n        if (debtRegistry.getIssuanceBlockNumber(agreementId).add(SEVEN_DAYS_IN_BLOCKS) < blockNumber) {\n            return 1;\n        } else {\n            return 0;\n        }\n    }\n\n    function getValueRepaid(\n        bytes32 agreementId,\n        uint256 blockNumber\n    )\n        public\n        view\n        returns (uint _valueRepaid)\n    {\n        uint tokenId = uint(debtRegistry.getTermsContractParameters(agreementId));\n\n        return principalNFTsRepaid[agreementId][tokenId] ? 1 : 0;\n    }\n}\n",
  "sourcePath": "/Users/nadavhollander/Documents/Dharma/Development/charta/contracts/examples/NFTTermsContract.sol",
  "compiler": {
    "name": "solc",
    "version": "0.4.18+commit.9cf6e910.Emscripten.clang"
  },
  "schemaVersion": "1.0.1",
  "updatedAt": "2018-01-10T07:05:33.554Z"
}