{
  "contractName": "RepaymentRouter",
  "abi": [
    {
      "constant": true,
      "inputs": [],
      "name": "tokenTransferProxy",
      "outputs": [
        {
          "name": "",
          "type": "address"
        }
      ],
      "payable": false,
      "stateMutability": "view",
      "type": "function"
    },
    {
      "constant": true,
      "inputs": [],
      "name": "debtRegistry",
      "outputs": [
        {
          "name": "",
          "type": "address"
        }
      ],
      "payable": false,
      "stateMutability": "view",
      "type": "function"
    },
    {
      "constant": false,
      "inputs": [],
      "name": "unpause",
      "outputs": [],
      "payable": false,
      "stateMutability": "nonpayable",
      "type": "function"
    },
    {
      "constant": true,
      "inputs": [],
      "name": "paused",
      "outputs": [
        {
          "name": "",
          "type": "bool"
        }
      ],
      "payable": false,
      "stateMutability": "view",
      "type": "function"
    },
    {
      "constant": false,
      "inputs": [],
      "name": "pause",
      "outputs": [],
      "payable": false,
      "stateMutability": "nonpayable",
      "type": "function"
    },
    {
      "constant": true,
      "inputs": [],
      "name": "owner",
      "outputs": [
        {
          "name": "",
          "type": "address"
        }
      ],
      "payable": false,
      "stateMutability": "view",
      "type": "function"
    },
    {
      "constant": false,
      "inputs": [
        {
          "name": "agreementId",
          "type": "bytes32"
        },
        {
          "name": "tokenId",
          "type": "uint256"
        },
        {
          "name": "tokenAddress",
          "type": "address"
        }
      ],
      "name": "repayNFT",
      "outputs": [
        {
          "name": "_tokenId",
          "type": "uint256"
        }
      ],
      "payable": false,
      "stateMutability": "nonpayable",
      "type": "function"
    },
    {
      "constant": false,
      "inputs": [
        {
          "name": "newOwner",
          "type": "address"
        }
      ],
      "name": "transferOwnership",
      "outputs": [],
      "payable": false,
      "stateMutability": "nonpayable",
      "type": "function"
    },
    {
      "constant": false,
      "inputs": [
        {
          "name": "agreementId",
          "type": "bytes32"
        },
        {
          "name": "amount",
          "type": "uint256"
        },
        {
          "name": "tokenAddress",
          "type": "address"
        }
      ],
      "name": "repay",
      "outputs": [
        {
          "name": "_amountRepaid",
          "type": "uint256"
        }
      ],
      "payable": false,
      "stateMutability": "nonpayable",
      "type": "function"
    },
    {
      "inputs": [
        {
          "name": "_debtRegistry",
          "type": "address"
        },
        {
          "name": "_tokenTransferProxy",
          "type": "address"
        }
      ],
      "payable": false,
      "stateMutability": "nonpayable",
      "type": "constructor"
    },
    {
      "anonymous": false,
      "inputs": [
        {
          "indexed": true,
          "name": "_agreementId",
          "type": "bytes32"
        },
        {
          "indexed": true,
          "name": "_payer",
          "type": "address"
        },
        {
          "indexed": true,
          "name": "_beneficiary",
          "type": "address"
        },
        {
          "indexed": false,
          "name": "_amount",
          "type": "uint256"
        },
        {
          "indexed": false,
          "name": "_token",
          "type": "address"
        }
      ],
      "name": "LogRepayment",
      "type": "event"
    },
    {
      "anonymous": false,
      "inputs": [
        {
          "indexed": true,
          "name": "_agreementId",
          "type": "bytes32"
        },
        {
          "indexed": true,
          "name": "_payer",
          "type": "address"
        },
        {
          "indexed": true,
          "name": "_beneficiary",
          "type": "address"
        },
        {
          "indexed": false,
          "name": "_tokenId",
          "type": "uint256"
        },
        {
          "indexed": false,
          "name": "_token",
          "type": "address"
        }
      ],
      "name": "LogNFTRepayment",
      "type": "event"
    },
    {
      "anonymous": false,
      "inputs": [
        {
          "indexed": true,
          "name": "_errorId",
          "type": "uint8"
        },
        {
          "indexed": true,
          "name": "_agreementId",
          "type": "bytes32"
        }
      ],
      "name": "LogError",
      "type": "event"
    },
    {
      "anonymous": false,
      "inputs": [],
      "name": "Pause",
      "type": "event"
    },
    {
      "anonymous": false,
      "inputs": [],
      "name": "Unpause",
      "type": "event"
    },
    {
      "anonymous": false,
      "inputs": [
        {
          "indexed": true,
          "name": "previousOwner",
          "type": "address"
        },
        {
          "indexed": true,
          "name": "newOwner",
          "type": "address"
        }
      ],
      "name": "OwnershipTransferred",
      "type": "event"
    }
  ],
  "bytecode": "0x606060405260008060146101000a81548160ff021916908315150217905550341561002957600080fd5b60405160408061182e83398101604052808051906020019091908051906020019091905050336000806101000a81548173ffffffffffffffffffffffffffffffffffffffff021916908373ffffffffffffffffffffffffffffffffffffffff16021790555081600160006101000a81548173ffffffffffffffffffffffffffffffffffffffff021916908373ffffffffffffffffffffffffffffffffffffffff16021790555080600260006101000a81548173ffffffffffffffffffffffffffffffffffffffff021916908373ffffffffffffffffffffffffffffffffffffffff160217905550505061170d806101216000396000f300606060405260043610610099576000357c0100000000000000000000000000000000000000000000000000000000900463ffffffff1680630eefdbad1461009e5780632f866f73146100f35780633f4ba83a146101485780635c975abb1461015d5780638456cb591461018a5780638da5cb5b1461019f5780639270b3a4146101f4578063f2fde38b14610257578063ff26812514610290575b600080fd5b34156100a957600080fd5b6100b16102f3565b604051808273ffffffffffffffffffffffffffffffffffffffff1673ffffffffffffffffffffffffffffffffffffffff16815260200191505060405180910390f35b34156100fe57600080fd5b610106610319565b604051808273ffffffffffffffffffffffffffffffffffffffff1673ffffffffffffffffffffffffffffffffffffffff16815260200191505060405180910390f35b341561015357600080fd5b61015b61033f565b005b341561016857600080fd5b6101706103fd565b604051808215151515815260200191505060405180910390f35b341561019557600080fd5b61019d610410565b005b34156101aa57600080fd5b6101b26104d0565b604051808273ffffffffffffffffffffffffffffffffffffffff1673ffffffffffffffffffffffffffffffffffffffff16815260200191505060405180910390f35b34156101ff57600080fd5b61024160048080356000191690602001909190803590602001909190803573ffffffffffffffffffffffffffffffffffffffff169060200190919050506104f5565b6040518082815260200191505060405180910390f35b341561026257600080fd5b61028e600480803573ffffffffffffffffffffffffffffffffffffffff16906020019091905050610d67565b005b341561029b57600080fd5b6102dd60048080356000191690602001909190803590602001909190803573ffffffffffffffffffffffffffffffffffffffff16906020019091905050610ebc565b6040518082815260200191505060405180910390f35b600260009054906101000a900473ffffffffffffffffffffffffffffffffffffffff1681565b600160009054906101000a900473ffffffffffffffffffffffffffffffffffffffff1681565b6000809054906101000a900473ffffffffffffffffffffffffffffffffffffffff1673ffffffffffffffffffffffffffffffffffffffff163373ffffffffffffffffffffffffffffffffffffffff1614151561039a57600080fd5b600060149054906101000a900460ff1615156103b557600080fd5b60008060146101000a81548160ff0219169083151502179055507f7805862f689e2f13df9f062ff482ad3ad112aca9e0847911ed832e158c525b3360405160405180910390a1565b600060149054906101000a900460ff1681565b6000809054906101000a900473ffffffffffffffffffffffffffffffffffffffff1673ffffffffffffffffffffffffffffffffffffffff163373ffffffffffffffffffffffffffffffffffffffff1614151561046b57600080fd5b600060149054906101000a900460ff1615151561048757600080fd5b6001600060146101000a81548160ff0219169083151502179055507f6985a02210a168e66602d3235cb6db0e70f92b3ba4d376a33c0f3d9434bff62560405160405180910390a1565b6000809054906101000a900473ffffffffffffffffffffffffffffffffffffffff1681565b600080600080600060149054906101000a900460ff1615151561051757600080fd5b600073ffffffffffffffffffffffffffffffffffffffff168573ffffffffffffffffffffffffffffffffffffffff161415151561055357600080fd5b600160009054906101000a900473ffffffffffffffffffffffffffffffffffffffff1673ffffffffffffffffffffffffffffffffffffffff1663ba20dda4886000604051602001526040518263ffffffff167c0100000000000000000000000000000000000000000000000000000000028152600401808260001916600019168152602001915050602060405180830381600087803b15156105f457600080fd5b6102c65a03f1151561060557600080fd5b505050604051805190509250600073ffffffffffffffffffffffffffffffffffffffff168373ffffffffffffffffffffffffffffffffffffffff1614156106905786600019166000600381111561065857fe5b60ff167f36d86c59e00bd73dc19ba3adfe068e4b64ac7e92be35546adeddf1b956a87e9060405160405180910390a360009350610d5d565b8491508173ffffffffffffffffffffffffffffffffffffffff16631051db346000604051602001526040518163ffffffff167c0100000000000000000000000000000000000000000000000000000000028152600401602060405180830381600087803b15156106ff57600080fd5b6102c65a03f1151561071057600080fd5b50505060405180519050151561072557600080fd5b3373ffffffffffffffffffffffffffffffffffffffff168273ffffffffffffffffffffffffffffffffffffffff16636352211e886000604051602001526040518263ffffffff167c010000000000000000000000000000000000000000000000000000000002815260040180828152602001915050602060405180830381600087803b15156107b357600080fd5b6102c65a03f115156107c457600080fd5b5050506040518051905073ffffffffffffffffffffffffffffffffffffffff161415806108d05750600260009054906101000a900473ffffffffffffffffffffffffffffffffffffffff1673ffffffffffffffffffffffffffffffffffffffff168273ffffffffffffffffffffffffffffffffffffffff1663081812fc886000604051602001526040518263ffffffff167c010000000000000000000000000000000000000000000000000000000002815260040180828152602001915050602060405180830381600087803b151561089c57600080fd5b6102c65a03f115156108ad57600080fd5b5050506040518051905073ffffffffffffffffffffffffffffffffffffffff1614155b1561091f578660001916600260038111156108e757fe5b60ff167f36d86c59e00bd73dc19ba3adfe068e4b64ac7e92be35546adeddf1b956a87e9060405160405180910390a360009350610d5d565b600160009054906101000a900473ffffffffffffffffffffffffffffffffffffffff1673ffffffffffffffffffffffffffffffffffffffff1663f6f494c9886000604051602001526040518263ffffffff167c0100000000000000000000000000000000000000000000000000000000028152600401808260001916600019168152602001915050602060405180830381600087803b15156109c057600080fd5b6102c65a03f115156109d157600080fd5b5050506040518051905090508073ffffffffffffffffffffffffffffffffffffffff166323d567e78833868a8a6000604051602001526040518663ffffffff167c01000000000000000000000000000000000000000000000000000000000281526004018086600019166000191681526020018573ffffffffffffffffffffffffffffffffffffffff1673ffffffffffffffffffffffffffffffffffffffff1681526020018473ffffffffffffffffffffffffffffffffffffffff1673ffffffffffffffffffffffffffffffffffffffff1681526020018381526020018273ffffffffffffffffffffffffffffffffffffffff1673ffffffffffffffffffffffffffffffffffffffff16815260200195505050505050602060405180830381600087803b1515610b0057600080fd5b6102c65a03f11515610b1157600080fd5b505050604051805190501515610b6a578660001916600380811115610b3257fe5b60ff167f36d86c59e00bd73dc19ba3adfe068e4b64ac7e92be35546adeddf1b956a87e9060405160405180910390a360009350610d5d565b600260009054906101000a900473ffffffffffffffffffffffffffffffffffffffff1673ffffffffffffffffffffffffffffffffffffffff166315dacbea8633868a6000604051602001526040518563ffffffff167c0100000000000000000000000000000000000000000000000000000000028152600401808573ffffffffffffffffffffffffffffffffffffffff1673ffffffffffffffffffffffffffffffffffffffff1681526020018473ffffffffffffffffffffffffffffffffffffffff1673ffffffffffffffffffffffffffffffffffffffff1681526020018373ffffffffffffffffffffffffffffffffffffffff1673ffffffffffffffffffffffffffffffffffffffff168152602001828152602001945050505050602060405180830381600087803b1515610c9f57600080fd5b6102c65a03f11515610cb057600080fd5b50505060405180519050508273ffffffffffffffffffffffffffffffffffffffff163373ffffffffffffffffffffffffffffffffffffffff1688600019167fbe4a224511f75fdeaff010d296cbe371b3e2243768aa1ad4dd2ce7d366ee3d058989604051808381526020018273ffffffffffffffffffffffffffffffffffffffff1673ffffffffffffffffffffffffffffffffffffffff1681526020019250505060405180910390a48593505b5050509392505050565b6000809054906101000a900473ffffffffffffffffffffffffffffffffffffffff1673ffffffffffffffffffffffffffffffffffffffff163373ffffffffffffffffffffffffffffffffffffffff16141515610dc257600080fd5b600073ffffffffffffffffffffffffffffffffffffffff168173ffffffffffffffffffffffffffffffffffffffff1614151515610dfe57600080fd5b8073ffffffffffffffffffffffffffffffffffffffff166000809054906101000a900473ffffffffffffffffffffffffffffffffffffffff1673ffffffffffffffffffffffffffffffffffffffff167f8be0079c531659141344cd1fd0a4f28419497f9722a3daafe3b4186f6b6457e060405160405180910390a3806000806101000a81548173ffffffffffffffffffffffffffffffffffffffff021916908373ffffffffffffffffffffffffffffffffffffffff16021790555050565b60008060008060149054906101000a900460ff16151515610edc57600080fd5b600073ffffffffffffffffffffffffffffffffffffffff168473ffffffffffffffffffffffffffffffffffffffff1614151515610f1857600080fd5b600085111515610f2757600080fd5b600160009054906101000a900473ffffffffffffffffffffffffffffffffffffffff1673ffffffffffffffffffffffffffffffffffffffff1663ba20dda4876000604051602001526040518263ffffffff167c0100000000000000000000000000000000000000000000000000000000028152600401808260001916600019168152602001915050602060405180830381600087803b1515610fc857600080fd5b6102c65a03f11515610fd957600080fd5b505050604051805190509150600073ffffffffffffffffffffffffffffffffffffffff168273ffffffffffffffffffffffffffffffffffffffff1614156110645785600019166000600381111561102c57fe5b60ff167f36d86c59e00bd73dc19ba3adfe068e4b64ac7e92be35546adeddf1b956a87e9060405160405180910390a3600092506116d8565b848473ffffffffffffffffffffffffffffffffffffffff166370a08231336000604051602001526040518263ffffffff167c0100000000000000000000000000000000000000000000000000000000028152600401808273ffffffffffffffffffffffffffffffffffffffff1673ffffffffffffffffffffffffffffffffffffffff168152602001915050602060405180830381600087803b151561110857600080fd5b6102c65a03f1151561111957600080fd5b5050506040518051905010806112415750848473ffffffffffffffffffffffffffffffffffffffff1663dd62ed3e33600260009054906101000a900473ffffffffffffffffffffffffffffffffffffffff166000604051602001526040518363ffffffff167c0100000000000000000000000000000000000000000000000000000000028152600401808373ffffffffffffffffffffffffffffffffffffffff1673ffffffffffffffffffffffffffffffffffffffff1681526020018273ffffffffffffffffffffffffffffffffffffffff1673ffffffffffffffffffffffffffffffffffffffff16815260200192505050602060405180830381600087803b151561122457600080fd5b6102c65a03f1151561123557600080fd5b50505060405180519050105b156112905785600019166001600381111561125857fe5b60ff167f36d86c59e00bd73dc19ba3adfe068e4b64ac7e92be35546adeddf1b956a87e9060405160405180910390a3600092506116d8565b600160009054906101000a900473ffffffffffffffffffffffffffffffffffffffff1673ffffffffffffffffffffffffffffffffffffffff1663f6f494c9876000604051602001526040518263ffffffff167c0100000000000000000000000000000000000000000000000000000000028152600401808260001916600019168152602001915050602060405180830381600087803b151561133157600080fd5b6102c65a03f1151561134257600080fd5b5050506040518051905090508073ffffffffffffffffffffffffffffffffffffffff16635f0280ba87338589896000604051602001526040518663ffffffff167c01000000000000000000000000000000000000000000000000000000000281526004018086600019166000191681526020018573ffffffffffffffffffffffffffffffffffffffff1673ffffffffffffffffffffffffffffffffffffffff1681526020018473ffffffffffffffffffffffffffffffffffffffff1673ffffffffffffffffffffffffffffffffffffffff1681526020018381526020018273ffffffffffffffffffffffffffffffffffffffff1673ffffffffffffffffffffffffffffffffffffffff16815260200195505050505050602060405180830381600087803b151561147157600080fd5b6102c65a03f1151561148257600080fd5b5050506040518051905015156114db5785600019166003808111156114a357fe5b60ff167f36d86c59e00bd73dc19ba3adfe068e4b64ac7e92be35546adeddf1b956a87e9060405160405180910390a3600092506116d8565b600260009054906101000a900473ffffffffffffffffffffffffffffffffffffffff1673ffffffffffffffffffffffffffffffffffffffff166315dacbea853385896000604051602001526040518563ffffffff167c0100000000000000000000000000000000000000000000000000000000028152600401808573ffffffffffffffffffffffffffffffffffffffff1673ffffffffffffffffffffffffffffffffffffffff1681526020018473ffffffffffffffffffffffffffffffffffffffff1673ffffffffffffffffffffffffffffffffffffffff1681526020018373ffffffffffffffffffffffffffffffffffffffff1673ffffffffffffffffffffffffffffffffffffffff168152602001828152602001945050505050602060405180830381600087803b151561161057600080fd5b6102c65a03f1151561162157600080fd5b50505060405180519050151561163657600080fd5b8173ffffffffffffffffffffffffffffffffffffffff163373ffffffffffffffffffffffffffffffffffffffff1687600019167f43ea5a2b552489bf9de7c3d6ded86e3b82423e034255d06db4b388f806db50d08888604051808381526020018273ffffffffffffffffffffffffffffffffffffffff1673ffffffffffffffffffffffffffffffffffffffff1681526020019250505060405180910390a48492505b505093925050505600a165627a7a723058207c856bb7fd33cf26d89cf308cf25f9c8b83079c5a809b8f317666927312a55160029",
  "source": "/*\n\n  Copyright 2017 Dharma Labs Inc.\n\n  Licensed under the Apache License, Version 2.0 (the \"License\");\n  you may not use this file except in compliance with the License.\n  You may obtain a copy of the License at\n\n    http://www.apache.org/licenses/LICENSE-2.0\n\n  Unless required by applicable law or agreed to in writing, software\n  distributed under the License is distributed on an \"AS IS\" BASIS,\n  WITHOUT WARRANTIES OR CONDITIONS OF ANY KIND, either express or implied.\n  See the License for the specific language governing permissions and\n  limitations under the License.\n\n*/\n\npragma solidity 0.4.18;\n\nimport \"./DebtRegistry.sol\";\nimport \"./TermsContract.sol\";\nimport \"./TokenTransferProxy.sol\";\nimport \"zeppelin-solidity/contracts/token/ERC20/ERC20.sol\";\nimport \"zeppelin-solidity/contracts/lifecycle/Pausable.sol\";\nimport \"NonFungibleToken/contracts/ERC721.sol\";\n\n\n/**\n * The RepaymentRouter routes allowers payers to make repayments on any\n * given debt agreement in any given token by routing the payments to\n * the debt agreement's beneficiary.  Additionally, the router acts\n * as a trusted oracle to the debt agreement's terms contract, informing\n * it of exactly what payments have been made in what quantity and in what token.\n *\n * Authors: Jaynti Kanani -- Github: jdkanani, Nadav Hollander -- Github: nadavhollander\n */\ncontract RepaymentRouter is Pausable {\n    DebtRegistry public debtRegistry;\n    TokenTransferProxy public tokenTransferProxy;\n\n    enum Errors {\n        DEBT_AGREEMENT_NONEXISTENT,\n        PAYER_BALANCE_OR_ALLOWANCE_INSUFFICIENT,\n        PAYER_OWNERSHIP_OR_ROUTER_APPROVAL_MISSING,\n        ROUTER_UNAUTHORIZED_TO_REPORT_REPAYMENT\n    }\n\n    event LogRepayment(\n        bytes32 indexed _agreementId,\n        address indexed _payer,\n        address indexed _beneficiary,\n        uint _amount,\n        address _token\n    );\n\n    event LogNFTRepayment(\n        bytes32 indexed _agreementId,\n        address indexed _payer,\n        address indexed _beneficiary,\n        uint _tokenId,\n        address _token\n    );\n\n    event LogError(uint8 indexed _errorId, bytes32 indexed _agreementId);\n\n    /**\n     * Constructor points the repayment router at the deployed registry contract.\n     */\n    function RepaymentRouter (address _debtRegistry, address _tokenTransferProxy) public {\n        debtRegistry = DebtRegistry(_debtRegistry);\n        tokenTransferProxy = TokenTransferProxy(_tokenTransferProxy);\n    }\n\n    /**\n     * Given an agreement id (synonymous to 'issuanceHash' in the debt registry), routes a repayment\n     * of a given ERC20 token  to the debt's current beneficiary, and reports the repayment\n     * to the debt's associated terms contract.\n     */\n    function repay(\n        bytes32 agreementId,\n        uint256 amount,\n        address tokenAddress\n    )\n        public\n        whenNotPaused\n        returns (uint _amountRepaid)\n    {\n        require(tokenAddress != address(0));\n        require(amount > 0);\n\n        // Get registry entry and check if entry is valid\n        address beneficiary = debtRegistry.getBeneficiary(agreementId);\n        if (beneficiary == address(0)) {\n            LogError(uint8(Errors.DEBT_AGREEMENT_NONEXISTENT), agreementId);\n            return 0;\n        }\n\n        // Check payer has sufficient balance and has granted router sufficient allowance\n        if (ERC20(tokenAddress).balanceOf(msg.sender) < amount ||\n            ERC20(tokenAddress).allowance(msg.sender, tokenTransferProxy) < amount) {\n            LogError(uint8(Errors.PAYER_BALANCE_OR_ALLOWANCE_INSUFFICIENT), agreementId);\n            return 0;\n        }\n\n        // Notify terms contract\n        address termsContract = debtRegistry.getTermsContract(agreementId);\n        if (!TermsContract(termsContract).registerRepayment(\n            agreementId,\n            msg.sender,\n            beneficiary,\n            amount,\n            tokenAddress\n        )) {\n            LogError(uint8(Errors.ROUTER_UNAUTHORIZED_TO_REPORT_REPAYMENT), agreementId);\n            return 0;\n        }\n\n        // Transfer amount to creditor\n        require(tokenTransferProxy.transferFrom(\n            tokenAddress,\n            msg.sender,\n            beneficiary,\n            amount\n        ));\n\n        // Log event for repayment\n        LogRepayment(agreementId, msg.sender, beneficiary, amount, tokenAddress);\n\n        return amount;\n    }\n\n    /**\n     * Given an agreement id (synonymous to 'issuanceHash' in the debt registry), routes a repayment\n     * of a given ERC721 token  to the debt's current beneficiary and reports the repayment\n     * to the debt's associated terms contract.\n     */\n    function repayNFT(\n        bytes32 agreementId,\n        uint tokenId,\n        address tokenAddress\n    )\n        public\n        whenNotPaused\n        returns (uint _tokenId)\n    {\n        require(tokenAddress != address(0));\n\n        // Get registry entry and check if entry is valid\n        address beneficiary = debtRegistry.getBeneficiary(agreementId);\n        if (beneficiary == address(0)) {\n            LogError(uint8(Errors.DEBT_AGREEMENT_NONEXISTENT), agreementId);\n            return 0;\n        }\n\n        ERC721 nonFungibleToken = ERC721(tokenAddress);\n        require(nonFungibleToken.implementsERC721());\n\n        // Check payer owns token and has granted router approval to transfer it\n        if (nonFungibleToken.ownerOf(tokenId) != msg.sender ||\n            nonFungibleToken.getApproved(tokenId) != address(tokenTransferProxy)) {\n            LogError(uint8(Errors.PAYER_OWNERSHIP_OR_ROUTER_APPROVAL_MISSING), agreementId);\n            return 0;\n        }\n\n        // Notify terms contract\n        address termsContract = debtRegistry.getTermsContract(agreementId);\n        if (!TermsContract(termsContract).registerNFTRepayment(\n            agreementId,\n            msg.sender,\n            beneficiary,\n            tokenId,\n            tokenAddress\n        )) {\n            LogError(uint8(Errors.ROUTER_UNAUTHORIZED_TO_REPORT_REPAYMENT), agreementId);\n            return 0;\n        }\n\n        tokenTransferProxy.transferFrom(\n            tokenAddress,\n            msg.sender,\n            beneficiary,\n            tokenId\n        );\n\n        // Log event for repayment\n        LogNFTRepayment(agreementId, msg.sender, beneficiary, tokenId, tokenAddress);\n\n        return tokenId;\n    }\n}\n",
  "sourcePath": "/Users/nadavhollander/Documents/Dharma/Development/charta/contracts/RepaymentRouter.sol",
  "compiler": {
    "name": "solc",
    "version": "0.4.18+commit.9cf6e910.Emscripten.clang"
  },
  "schemaVersion": "1.0.1",
  "updatedAt": "2018-01-30T07:33:00.363Z"
}