{
  "contractName": "SimpleInterestTermsContract",
  "abi": [
    {
      "constant": true,
      "inputs": [
        {
          "name": "parameters",
          "type": "bytes32"
        }
      ],
      "name": "unpackParameters",
      "outputs": [
        {
          "name": "_principalPlusInterest",
          "type": "uint128"
        },
        {
          "name": "_termLengthInBlocks",
          "type": "uint128"
        }
      ],
      "payable": false,
      "stateMutability": "pure",
      "type": "function"
    },
    {
      "constant": false,
      "inputs": [
        {
          "name": "agreementId",
          "type": "bytes32"
        },
        {
          "name": "payer",
          "type": "address"
        },
        {
          "name": "beneficiary",
          "type": "address"
        },
        {
          "name": "unitsOfRepayment",
          "type": "uint256"
        },
        {
          "name": "tokenAddress",
          "type": "address"
        }
      ],
      "name": "registerRepayment",
      "outputs": [
        {
          "name": "_success",
          "type": "bool"
        }
      ],
      "payable": false,
      "stateMutability": "nonpayable",
      "type": "function"
    },
    {
      "constant": true,
      "inputs": [
        {
          "name": "agreementId",
          "type": "bytes32"
        },
        {
          "name": "blockNumber",
          "type": "uint256"
        }
      ],
      "name": "getExpectedRepaymentValue",
      "outputs": [
        {
          "name": "_expectedRepaymentValue",
          "type": "uint256"
        }
      ],
      "payable": false,
      "stateMutability": "view",
      "type": "function"
    },
    {
      "constant": true,
      "inputs": [
        {
          "name": "agreementId",
          "type": "bytes32"
        },
        {
          "name": "blockNumber",
          "type": "uint256"
        }
      ],
      "name": "getValueRepaid",
      "outputs": [
        {
          "name": "_valueRepaid",
          "type": "uint256"
        }
      ],
      "payable": false,
      "stateMutability": "view",
      "type": "function"
    },
    {
      "inputs": [
        {
          "name": "_debtRegistry",
          "type": "address"
        },
        {
          "name": "_repaymentToken",
          "type": "address"
        },
        {
          "name": "_repaymentRouter",
          "type": "address"
        }
      ],
      "payable": false,
      "stateMutability": "nonpayable",
      "type": "constructor"
    }
  ],
  "bytecode": "0x6060604052341561000f57600080fd5b6040516060806107b18339810160405280805190602001909190805190602001909190805190602001909190505082600160006101000a81548173ffffffffffffffffffffffffffffffffffffffff021916908373ffffffffffffffffffffffffffffffffffffffff16021790555081600260006101000a81548173ffffffffffffffffffffffffffffffffffffffff021916908373ffffffffffffffffffffffffffffffffffffffff16021790555080600360006101000a81548173ffffffffffffffffffffffffffffffffffffffff021916908373ffffffffffffffffffffffffffffffffffffffff16021790555050505061069f806101126000396000f300606060405260043610610062576000357c0100000000000000000000000000000000000000000000000000000000900463ffffffff168063113d81c0146100675780635f0280ba146100f157806399114d8414610196578063f03a423c146101da575b600080fd5b341561007257600080fd5b61008c60048080356000191690602001909190505061021e565b60405180836fffffffffffffffffffffffffffffffff166fffffffffffffffffffffffffffffffff168152602001826fffffffffffffffffffffffffffffffff166fffffffffffffffffffffffffffffffff1681526020019250505060405180910390f35b34156100fc57600080fd5b61017c60048080356000191690602001909190803573ffffffffffffffffffffffffffffffffffffffff1690602001909190803573ffffffffffffffffffffffffffffffffffffffff1690602001909190803590602001909190803573ffffffffffffffffffffffffffffffffffffffff16906020019091905050610304565b604051808215151515815260200191505060405180910390f35b34156101a157600080fd5b6101c4600480803560001916906020019091908035906020019091905050610416565b6040518082815260200191505060405180910390f35b34156101e557600080fd5b6102086004808035600019169060200190919080359060200190919050506105f6565b6040518082815260200191505060405180910390f35b600080610229610639565b60408051908101604052806000700100000000000000000000000000000000026fffffffffffffffffffffffffffffffff19166fffffffffffffffffffffffffffffffff191681526020016000700100000000000000000000000000000000026fffffffffffffffffffffffffffffffff191681525090508381528360108201528060006002811015156102b957fe5b602002015170010000000000000000000000000000000090048160016002811015156102e157fe5b602002015170010000000000000000000000000000000090049250925050915091565b6000600360009054906101000a900473ffffffffffffffffffffffffffffffffffffffff1673ffffffffffffffffffffffffffffffffffffffff163373ffffffffffffffffffffffffffffffffffffffff16141515610366576000905061040d565b600260009054906101000a900473ffffffffffffffffffffffffffffffffffffffff1673ffffffffffffffffffffffffffffffffffffffff168273ffffffffffffffffffffffffffffffffffffffff161415610408576103e98360008089600019166000191681526020019081526020016000205461061b90919063ffffffff16565b6000808860001916600019168152602001908152602001600020819055505b600190505b95945050505050565b600080600080600160009054906101000a900473ffffffffffffffffffffffffffffffffffffffff1673ffffffffffffffffffffffffffffffffffffffff1663314a522e876000604051602001526040518263ffffffff167c0100000000000000000000000000000000000000000000000000000000028152600401808260001916600019168152602001915050602060405180830381600087803b15156104bd57600080fd5b6102c65a03f115156104ce57600080fd5b5050506040518051905092506104e38361021e565b91509150846105c8826fffffffffffffffffffffffffffffffff16600160009054906101000a900473ffffffffffffffffffffffffffffffffffffffff1673ffffffffffffffffffffffffffffffffffffffff1663703427858a6000604051602001526040518263ffffffff167c0100000000000000000000000000000000000000000000000000000000028152600401808260001916600019168152602001915050602060405180830381600087803b151561059f57600080fd5b6102c65a03f115156105b057600080fd5b5050506040518051905061061b90919063ffffffff16565b10156105e857816fffffffffffffffffffffffffffffffff1693506105ed565b600093505b50505092915050565b6000806000846000191660001916815260200190815260200160002054905092915050565b600080828401905083811015151561062f57fe5b8091505092915050565b60408051908101604052806002905b60006fffffffffffffffffffffffffffffffff191681526020019060019003908161064857905050905600a165627a7a723058209c71e34b36121a2ed6af5c5f043185ec9e9e8761d38de6877ed41cbac460f2a50029",
  "source": "/*\n\n  Copyright 2017 Dharma Labs Inc.\n\n  Licensed under the Apache License, Version 2.0 (the \"License\");\n  you may not use this file except in compliance with the License.\n  You may obtain a copy of the License at\n\n    http://www.apache.org/licenses/LICENSE-2.0\n\n  Unless required by applicable law or agreed to in writing, software\n  distributed under the License is distributed on an \"AS IS\" BASIS,\n  WITHOUT WARRANTIES OR CONDITIONS OF ANY KIND, either express or implied.\n  See the License for the specific language governing permissions and\n  limitations under the License.\n\n*/\n\npragma solidity 0.4.18;\n\nimport \"zeppelin-solidity/contracts/math/SafeMath.sol\";\nimport \"../DebtRegistry.sol\";\n\n\ncontract SimpleInterestTermsContract {\n    using SafeMath for uint;\n\n    mapping (bytes32 => uint) valueRepaid;\n\n    DebtRegistry debtRegistry;\n\n    address repaymentToken;\n    address repaymentRouter;\n\n    function SimpleInterestTermsContract(\n        address _debtRegistry,\n        address _repaymentToken,\n        address _repaymentRouter\n    )\n        public\n    {\n        debtRegistry = DebtRegistry(_debtRegistry);\n\n        repaymentToken = _repaymentToken;\n        repaymentRouter = _repaymentRouter;\n    }\n\n     /// When called, the registerRepayment function records the debtor's\n     ///  repayment, as well as any auxiliary metadata needed by the contract\n     ///  to determine ex post facto the value repaid (e.g. current USD\n     ///  exchange rate)\n     /// @param  agreementId bytes32. The agreement id (issuance hash) of the debt agreement to which this pertains.\n     /// @param  payer address. The address of the payer.\n     /// @param  beneficiary address. The address of the payment's beneficiary.\n     /// @param  unitsOfRepayment uint. The units-of-value repaid in the transaction.\n     /// @param  tokenAddress address. The address of the token with which the repayment transaction was executed.\n    function registerRepayment(\n        bytes32 agreementId,\n        address payer,\n        address beneficiary,\n        uint256 unitsOfRepayment,\n        address tokenAddress\n    )\n        public\n        returns (bool _success)\n    {\n        if (msg.sender != repaymentRouter) {\n            return false;\n        }\n\n        if (tokenAddress == repaymentToken) {\n            valueRepaid[agreementId] = valueRepaid[agreementId].add(unitsOfRepayment);\n        }\n\n        return true;\n    }\n\n     /// Returns the cumulative units-of-value expected to be repaid by any given blockNumber.\n     ///  Note this is not a constant function -- this value can vary on basis of any number of\n     ///  conditions (e.g. interest rates can be renegotiated if repayments are delinquent).\n     /// @param  agreementId bytes32. The agreement id (issuance hash) of the debt agreement to which this pertains.\n     /// @param  blockNumber uint. The block number for which repayment expectation is being queried.\n     /// @return uint256 The cumulative units-of-value expected to be repaid by the time the given blockNumber lapses.\n    function getExpectedRepaymentValue(\n        bytes32 agreementId,\n        uint256 blockNumber\n    )\n        public\n        view\n        returns (uint _expectedRepaymentValue)\n    {\n        bytes32 parameters = debtRegistry.getTermsContractParameters(agreementId);\n\n        var (principalPlusInterest, termLengthInBlocks) = unpackParameters(parameters);\n\n        if (debtRegistry.getIssuanceBlockNumber(agreementId).add(termLengthInBlocks) < blockNumber) {\n            return principalPlusInterest;\n        } else {\n            return 0;\n        }\n    }\n\n     /// Returns the cumulative units-of-value repaid by the point at which a given blockNumber has lapsed.\n     /// @param  agreementId bytes32. The agreement id (issuance hash) of the debt agreement to which this pertains.\n     /// @param blockNumber uint. The block number for which repayment value is being queried.\n     /// @return uint256 The cumulative units-of-value repaid by the time the given blockNumber lapsed.\n    function getValueRepaid(\n        bytes32 agreementId,\n        uint256 blockNumber\n    )\n        public\n        view\n        returns (uint _valueRepaid)\n    {\n        return valueRepaid[agreementId];\n    }\n\n    function unpackParameters(bytes32 parameters)\n        public\n        pure\n        returns (uint128 _principalPlusInterest, uint128 _termLengthInBlocks)\n    {\n        bytes16[2] memory values = [bytes16(0), 0];\n\n        assembly {\n            mstore(values, parameters)\n            mstore(add(values, 16), parameters)\n        }\n\n        return ( uint128(values[0]), uint128(values[1]) );\n    }\n}\n",
  "sourcePath": "/Users/nadavhollander/Documents/Dharma/Development/charta/contracts/examples/SimpleInterestTermsContract.sol",
  "compiler": {
    "name": "solc",
    "version": "0.4.18+commit.9cf6e910.Emscripten.clang"
  },
  "schemaVersion": "1.0.1",
  "updatedAt": "2018-01-10T07:05:33.555Z"
}